:020000040800F2
:1000000000000220D5040008D1040008D104000833
:10001000D1040008D1040008D10400080000000049
:10002000000000000000000000000000D1040008F3
:10003000D104000800000000D1040008D104000829
:10004000F0B513464FF0010E05461C1D03EB0E00E4
:10005000C0B2E4B283B0A0428CBF74460424002234
:1000600001AF013C8DF800208DF801E0019257FAB4
:1000700084F40DF1030C3E460EFA03F20A401A41D5
:100080000CF8012FACEB0702A44502EB0003F3D1FF
:100090002C4605F1200716F8013BA18A2069083398
:1000A0006B44083413F8082C07F040FDBC42F2D131
:1000B000A989A868012207F039FD012000F00AFB98
:1000C000A868A989002207F031FD012003B0BDE82E
:1000D000F04000F0FFBA00BF82B02DE9F04FAFB0A2
:1000E000EA460DF1E0098AE806000546002178227B
:1000F00010A849F8043F00F0E1F99AE8030004ABC6
:1001000083E8030099E803001E4606AB83E803007A
:100110003BAB93E8030008AB83E803003DAB93E8F7
:1001200003000DF1280E0DF1FC0B8EE803009BE897
:1001300003000DF1300C41AB8CE8030093E80300A1
:100140000EAA82E8030010AC0DF1B8080127B388AD
:1001500056F8080BC4E900372146143407F034FB85
:100160004445F4D19AE8030085E8030099E80300C8
:1001700005F1080383E803003BAB93E803003DAAC5
:1001800005F1100383E8030092E8030005F118036A
:1001900083E803009BE8030005F1200383E80300E4
:1001A00041AB93E8030005F1280383E80300102026
:1001B00000F090FAA9882868002207F0B7FC042212
:1001C00003212846FFF73CFF002203212846FFF7C2
:1001D00037FF052000F07EFAA9882868002207F082
:1001E000A5FC042203212846FFF72AFF0321002251
:1001F0002846FFF725FF012000F06CFA114B93E829
:1002000003000DF109060DF10D0702908DF80C1099
:100210000224A9882868002207F088FC2146284685
:100220000422FFF70DFF214600222846FFF708FFB2
:10023000B74202D016F8014BEBE72FB0BDE8F04F04
:1002400002B07047B48F0108032901D8132A00D9DE
:10025000704738B50C4B01EB810103EB8103044679
:100260009D5C8188006845F08005002207F05EFCF7
:10027000294620460422FFF7E3FE294620460022B5
:10028000BDE83840DCE600BFBC8F010838B501226C
:1002900004460D468188006807F048FC2946204640
:1002A0000422FFF7CDFE294620460022BDE8384053
:1002B000C6E600BF70B50D78A5B10E460446A1880C
:1002C0002068012207F032FC294604222046FFF76D
:1002D000B7FE294600222046FFF7B2FE16F8015F5E
:1002E000002DECD170BD00BFF0B585B00E460B22DD
:1002F0000021044601A800F0E1F8092E41D92D485B
:100300003246002311460133A0FB025209294FEA6D
:10031000D202DBB2F6D803F110020DEB020100228B
:10032000244F01F80C2C03E003F110020DEB020145
:10033000A7FB0602D20802EB8200A6EB400035467E
:100340003030013B092D01F80D0CDBB21646EBD81D
:100350009DF804509DB101AEA1882068012207F0EC
:10036000E5FB294604222046FFF76AFE29460022C3
:100370002046FFF765FE16F8015F002DECD105B0B1
:10038000F0BDA1882068012207F0D0FB04223021B3
:100390002046FFF755FE002230212046FFF750FE91
:1003A0002EB930258DF804508DF80560D3E7012370
:1003B000B1E700BFCDCCCCCC10B58188044600227B
:1003C000006807F0B3FB204604220121FFF738FE46
:1003D00020460022BDE81040012131E600B5A3B05F
:1003E00000F050F93049314B0A6B314D802042F01A
:1003F00001020A631493ADF8540014AA92E80300B2
:100400004022ADF84C2007AA129382E8030012AAFA
:1004100092E803002022ADF8442005AA109382E858
:10042000030010AA92E803001022ADF83C2003AAB2
:100430000E9382E803000EAA92E803000222ADF8B0
:1004400034200122ADF82C2001AA0D9C0A9382E8E9
:10045000030000940AAA06CA16A8FFF73DFE154C31
:10046000294616A8FFF726FF4FF47A7000F032F9FC
:1004700016A8FFF7A1FF4FF47A7000F02BF9214680
:1004800016A8FFF717FF002216A80121FFF7DCFED0
:10049000094916A8FFF70EFF4FF47A7000F01AF919
:1004A00016A8FFF789FFDBE7003802400000024092
:1004B0000C9001081C9001082C90010832B1C9B2BF
:1004C0000244034603F8011B9342FBD1704700BF6F
:1004D000FEE700BF08B5FFF781FFFEE7104B30B421
:1004E0009C689A68B2F1006F0D4605D02346103023
:1004F00043F8205030BC70470A494FF00053E218CF
:1005000002F16042126843F8042B8B42F7D14FF09E
:100510000053034A1030936043F8205030BC7047BA
:1005200000ED00E088010020024B10309B6853F87A
:100530002000704700ED00E038B50F4C2368DA6802
:10054000910703D51A6922F002021A61DA6852078C
:1005500009D51969E26B21F0040119615D6AAA1AD3
:10056000B2F57A7F00D238BD00F0A6F82368E563C3
:1005700005F57A729A6338BD04000020704700BF09
:1005800038B5214B21491A6C214C224842F008020F
:100590001A641A6A42F008021A621A6A22F0080201
:1005A0001A620B681C4A20604FF0FF319342E160F1
:1005B00028D01A4AA2FB0323DB0C0B440025144865
:1005C00063602561A560656114F048FB1449322021
:1005D000FFF784FF134B0E484FF480225A602946E0
:1005E00013F08AF804210A4813F086F823685A6A3F
:1005F000E26302F57A729A63DA6842F004022846EE
:10060000DA6038BD0F23D9E700380240000000202F
:1006100004000020000C00400024F40083DE1B4393
:100620003905000800E100E0704700BF704700BFD7
:1006300010B5094B00244FF0FF321A621C625A6257
:100640005C621A611C615A615C619A619C61FFF78E
:10065000EDFF204610BD00BF0038024010B5044633
:100660000DF032FF064BA3FB0030800901F04CFC7B
:100670004FF0FF300022214601F0DCFB002010BDCE
:10068000D34D621008B50B4B1A6842F400721A6021
:100690001A6842F480621A601A6842F480721A6022
:1006A000032001F0B5FB0F20FFF76AFFFFF7BCFF47
:1006B000002008BD003C0240024A13680133136069
:1006C000704700BF44000020014B1868704700BF0E
:1006D0004400002010B582B00190FFF7F5FF0446FA
:1006E000FFF7F2FF019B001B9842F9D302B010BD47
:1006F0004FF0E022136923F002031361704700BF3B
:100700004FF0E022136943F002031361704700BF0A
:100710000048704702000101014B1868000C704747
:10072000002004E0024B1868C0F30B00704700BFC4
:10073000002004E0024A536843F00103536070470D
:10074000002004E0024A536823F00103536070471D
:10075000002004E0024A536843F0020353607047EC
:10076000002004E0024A536823F0020353607047FC
:10077000002004E0024A536843F0040353607047CA
:10078000002004E0024A536823F0040353607047DA
:10079000002004E0024B0122C3F80024704700BF90
:1007A00000002742024B0022C3F80024704700BF1C
:1007B00000002742704700BF002800F0818038B554
:1007C00090F83D300446002B77D03E4A022384F84F
:1007D0003D305168236821F44031516051686068B0
:1007E000014351605A682569A06822F480725A60FA
:1007F000596841EA052159605968E56821F040715E
:1008000059605A6802435A609A68206B22F4006269
:100810009A60996829439960996821F0706199609C
:100820009A6802439A609968E06A21F040519960A1
:100830009A6802439A609968A06921F00201996060
:100840009A68616A42EA40029A6039BB5A6822F4A7
:1008500000625A60DA6A216AE569606922F470020E
:10086000DA62DA6A013942EA0152DA629A6822F4FB
:1008700000729A60996841EA45219960996821F46B
:10088000806199609A68012142EA802200209A6082
:10089000206484F83C0084F83D1038BD5968A26A91
:1008A00041F400615960586820F460405860511E5E
:1008B0005A6842EA41325A60CCE7FFF77BFF84E78F
:1008C0000120704700230140704700BF60B110B5A0
:1008D0000223044680F83D30FFF7F6FF002323642F
:1008E00084F83D30184610BD0120704790F83C3028
:1008F000012B3AD090F83D300122222B0CBF32233D
:10090000122380F83C20026880F83D309368D907B4
:100910000AD4916841F0010140F21D23916000BFAB
:10092000013B9BB2002BFAD1114B5B68DB060BD16C
:10093000C36A6BB90268936843F0804393600023F5
:1009400080F83C30184670470A4A0368934204D046
:10095000002380F83C3018467047C26A002AF7D15D
:100960009A6842F080429A60F2E70220704700BF26
:10097000002301400020014001688A6803464FF0CF
:10098000010C22F001028A60002083F83DC070470C
:10099000F8B50D460646FFF797FE4719326801E0A5
:1009A0006B1C0DD1146814F00204F9D096F83D3098
:1009B000252B0CBF3523152386F83D300020F8BDCC
:1009C000FFF782FEB842E9D3032086F83D0086F89F
:1009D0003C40F8BDF8B5154606460C46FFF774FED8
:1009E0004719316801E06B1C0ED10B6834EA030330
:1009F000F9D1012C13D0042386F83D300B6823F085
:100A0000200300200B60F8BDFFF75EFEB842E8D37C
:100A10000320002386F83D0086F83C30F8BD06230D
:100A200086F83D300B6823F0010300200B60F8BD11
:100A300090F83C30012B3BD090F83D30222B0CBF7E
:100A400032231223012280F83D3080F83C2000231D
:100A5000026803649368D9070BD4916841F00101DF
:100A600040F21D23916000BF013B9BB2002BFAD1E5
:100A7000026853680F4943F080635360536843F042
:100A8000200353604B68DB060AD1C36A1BB9936825
:100A900043F080439360002380F83C301846704751
:100AA000054B9A42F1D0002380F83C30184670473D
:100AB000022070470023014000200140036859686C
:100AC00021F020015960596821F08001596099682E
:100AD00002464FF0010C21F001019960002082F8DC
:100AE0003DC0704738B590F83C50012D36D00446D3
:100AF000134608460122216884F83C204A6842F0E7
:100B000080624A608D68024645F48075A06B8D60F6
:100B1000134DC563134D0564134D85644C3102F0CC
:100B2000E7FA1223226884F83D309368DB070AD481
:100B3000916841F0010140F21D23916000BF013B2B
:100B40009BB2002BFAD1E36A23B92268936843F081
:100B500080439360002084F83C0038BD022038BDFB
:100B6000A90B0008C90B0008DD0C000803689A688F
:100B700022F0010210B50446806B9A605A6822F098
:100B800080625A609A6822F480729A6002F0E6FAF3
:100B9000012384F83D30002010BD00BF0368D86CED
:100BA000704700BF704700BF08B5806B90F83D30BC
:100BB000252B0CBF3523152380F83D30FFF7F2FFBE
:100BC00008BD00BF704700BF08B5806BFFF7FAFF94
:100BD00008BD00BF704700BF704700BF03681A68B8
:100BE000596810B50446900701D589062FD41A68B4
:100BF0005968520701D508060CD41A685968D007FD
:100C000001D54A065AD41A685968900601D54A0196
:100C100045D410BD94F83D20A169152A0CBF35229A
:100C2000252284F83D2058689A6802F44012002971
:100C300050D11AB95A6822F080025A60204600F05A
:100C4000BBFA23681A6822F004021A60D5E794F808
:100C50003D20252A0CBF3522152284F83D20A269AB
:100C6000A2B9E26A92B9626942B1626B0AB9226AB8
:100C70006263626B013A6263626B3AB95A6822F04E
:100C800020025A605A6822F080625A602046FFF7BC
:100C900089FF23681A6822F002021A60A7E704227B
:100CA00084F83D20226C42F0010222641A6822F08E
:100CB000200220461A60FFF78FFF10BD062284F83D
:100CC0003D201A6822F001021A602046FFF782FFD9
:100CD000236898E74105B1D4ABE700BF806B08B546
:100CE000042380F83D30036C43F002030364FFF7F4
:100CF00073FF08BD90F83C30012B7BD0012330B549
:100D000080F83C300C680268092C2AD815698B6879
:100D100004EB440E4FF0070C0CFA0EFC25EA0C0510
:100D20001561156903FA0EF32B4313614B68062B0B
:100D30002BD803EB8303516B053B4FF01F0C0CFAD0
:100D400003FC21EA0C015163516B04FA03F30B43DA
:100D50005363294B9A422BD0002380F83C3018462D
:100D600030BD04EB4403D568A3F11E0C072303FA3E
:100D70000CF325EA0303D3608B68D56803FA0CF300
:100D80002B43D3604B68062BD3D90C2B03EB830387
:100D90001DD8116B233B1F259D4021EA05011163DE
:100DA000116B04FA03F30B431363134B9A42D3D131
:100DB000122C19D0103C012CCED8104A536843F4A1
:100DC00000035360002380F83C30184630BDD16AE0
:100DD000413B1F259D4021EA0501D162D16A04FAF9
:100DE00003F30B43D362B4E7044A536843F480032C
:100DF0005360B1E70220704700200140002301400A
:100E000090F83C30012B2BD0012310B480F83C30FB
:100E10000B69012B0368024658680CBF40F0400084
:100E200020F04000586058680C6820F4400020F41E
:100E300000705860586820434C68586088685C624D
:100E400098625868CC6820F01F00586059684FF0CD
:100E5000000C2143596082F83CC0604610BC7047CA
:100E60000220704790F83D00704700BF006C70474B
:100E7000806B042380F83D30036C43F0020303646D
:100E8000FFF7AABE806BFFF79DBE00BF806B90F896
:100E90003D30252B0CBF3523152380F83D30FFF75F
:100EA00081BE00BF90F83C30012B39D090F83D3026
:100EB0000122122B0CBF3223222380F83C2002682F
:100EC00080F83D309368D90709D4916841F0010159
:100ED00040F21D23916000BF013BFCD10268174B1B
:100EE0005B68DB0610D19168536801F4401103F48C
:100EF00080630B4303D1936843F480039360002322
:100F000080F83C30184670470D4B9A4210B49468F4
:100F1000516807D0002380F83C3010BC1846704759
:100F20000220704704F4401401F4806154EA010384
:100F3000F0D1936843F480039360EBE70023014012
:100F40000020014090F83C30012B43D090F83D3018
:100F5000122B0CBF32232223012280F83D3080F86F
:100F60003C200023026803649368D90709D4916880
:100F700041F0010140F21D23916000BF013BFCD113
:100F8000026853681A4943F080035360536843F082
:100F9000806353604B68DB0610D19168536801F49D
:100FA000401103F480630B4303D1936843F480033F
:100FB0009360002380F83C30184670470D4B9A42EE
:100FC00010B49468516807D0002380F83C3010BCFE
:100FD000184670470220704704F4401401F4806101
:100FE00054EA0103F0D1936843F480039360EBE784
:100FF000002301400020014001688A6803464FF049
:10100000010C22F001028A60002083F83DC0704785
:10101000F8B50D460646FFF757FB4719326801E061
:101020006B1C0DD1146814F00404F9D096F83D300F
:10103000152B0CBF3523252386F83D300020F8BD45
:10104000FFF742FBB842E9D3032086F83D0086F85B
:101050003C40F8BD0368596821F020015960596887
:1010600021F080015960996802464FF0010C21F08F
:1010700001019960002082F83DC0704782B002688B
:10108000002301931368013923F00403136003293B
:1010900005D8DFE801F0110C0702936C0193019869
:1010A00002B07047536C0193019802B07047136C03
:1010B0000193019802B07047D36B0193019802B07D
:1010C000704700BF10B5044690F83C0001283DD0A1
:1010D000012013460A46216884F83C00486840F025
:1010E00080604860E1691A4800292AD1416821F4EA
:1010F00000514160A06B1749C1631749016417494A
:101100008164174901F0F4FF1223226884F83D300E
:101110009368DB070AD4916841F0010140F21D2376
:10112000916000BF013B9BB2002BFAD1E36A23B967
:101130002268936843F080439360002084F83C0069
:1011400010BD416841F400514160D3E7022010BD59
:10115000002301408D0E0008850E0008710E000866
:101160000823014038B590F83C30012B1AD00368B1
:101170000D49012580F83C509A6822F001029A60DE
:101180005A6822F080625A604B6823F40053044688
:10119000806B4B6001F0E2FF002084F83D5084F842
:1011A0003C0038BD022038BD00230140014B986847
:1011B000704700BF00230140704700BF90F83C30EB
:1011C000012B00F0BD800123F0B480F83C300C68A6
:1011D0000368092C5FD81D698A6804EB4407072659
:1011E000BE4025EA06051D611D69BA402A431A6101
:1011F0009A6B0F694D6822F440129A639E6B7A1EB7
:1012000046EA0256EA1CD21B9E63D2B29E6B02EBE8
:1012100082024FF01F0C0CFA02FC26EA0C069E63B9
:101220009E6B04FA02F232439A639A680E6A22F4C1
:1012300070229A609A6832439A609A68CE6922F462
:1012400040129A609A6832439A604A69002A55D0DF
:101250005A6842F480625A608A6962B35A68022D01
:1012600042F480525A602CD0032D57D0012D4AD021
:101270001A6AC96822F47F6222F00F021A621A6A9F
:101280000A431A622F4A934228D0002380F83C3048
:10129000F0BC1846704704EB4402DE68A2F11E055C
:1012A0000722AA4026EA0202DA608A68AA40DD68BC
:1012B0002A43DA609CE75A68022D22F480525A6071
:1012C000D2D19A69C96822F47F6222F00F029A6132
:1012D0009A690A439A611B4A9342D6D1122C28D0AC
:1012E000103C012CD1D8184A536843F400035360D2
:1012F000002380F83C30F0BC184670475A6822F44E
:1013000080625A60A8E75A69C96822F47F6222F0B5
:101310000F025A615A690A435A61B3E7DA69C96828
:1013200022F47F6222F00F02DA61DA690A43DA619D
:10133000A8E7D2F8043343F48003C2F80433A4E7E7
:1013400002207047002001400023014090F83C300B
:10135000012B21D0114B0246586820F01F0010B419
:10136000586058680C6820435860586820F4404022
:10137000586058684C6820435860586820F4706082
:101380005860586889684FF0000C0143596082F832
:101390003CC0604610BC70470220704700230140EB
:1013A000454B4A69D3F8000240F0010010B4C3F87D
:1013B0000002D3F8000220F47C50C3F80002D3F8F6
:1013C00000024C6A40EA0420C3F80002D3F81C0271
:1013D0004FF0010C0CFA02FC20EA0C00C3F81C02CE
:1013E000CC696FEA0C00002C4CD1D3F80C420440BD
:1013F000C3F80C42D200CC688B8802F1804202F51F
:10140000C84243EA0443C2F840328C680B8843EA7E
:101410000443C2F844328B69274A03BBD2F8043232
:101420000340C2F804320B6913BB234AD2F81432CA
:101430000340C2F814320B6A012B06D11E4AD2F8BF
:101440001C3243EA0C03C2F81C321B4A10BCD2F80F
:10145000003223F001030020C2F800327047D2F8B6
:10146000043243EA0C03C2F804320B69002BDCD0CF
:10147000012BE0D1104AD2F8143243EA0C03C2F82F
:101480001432D8E7012CC6D1D3F80C4244EA0C043C
:10149000C3F80C42D2000C688B8802F1804202F53E
:1014A000C84243EA0443C2F840328C688B8943EA5D
:1014B0000443C2F84432AEE700640040704700BF06
:1014C000002800F08C8070B590F838300546002B6D
:1014D0007DD02B68022285F838201A6822F002029B
:1014E0001A601A6842F001021A60FFF7EDF800F185
:1014F0000A0603E0FFF7E8F8B04262D22A685468AF
:1015000014F00104F6D05368D90763D5AB69012BF9
:1015100013680CBF43F0800323F080031360EB6972
:10152000012B13680CBF43F0400323F0400313600A
:101530002B6A012B13680CBF43F0200323F0200318
:1015400013606B6A012B13680CBF43F0100323F088
:1015500010031360AB6A012B13680CBF43F0080340
:1015600023F008031360EB6A012B13680CBF43F0F0
:10157000040323F004031360D5E90230296903430F
:101580000B4368696968034301390B43D3611368EE
:1015900023F001031360FFF797F800F10A0403E05A
:1015A000FFF792F8A0421CD22B685A68D207F7D4F2
:1015B000586810F001000DD10123E86385F8383038
:1015C00070BD032085F8380085F8394070BDFFF7FD
:1015D00075FF7EE7042385F83830012070BD0120B7
:1015E00070470320002385F8380085F8393070BD36
:1015F000704700BF60B110B50223044680F8383050
:10160000FFF7F6FF002084F8380084F8390010BD99
:101610000120704790F83930012B00F0AD802DE9A2
:10162000F04790F83830222B0CBF322312230122CE
:1016300080F83830064680F83920006883685F01FA
:101640000D466FD5002400EB0412336BD2F88011E5
:1016500001F00101C2F8801199684FEA041C0029C9
:1016600078D11F68D96841EA4751D2F8807139436F
:10167000C2F88011D2F884111F69DFF8009121F0BF
:101680000F0107F00F071F61C2F88411D969D2F862
:1016900084E100EB0C08186A4FEA014CD96A4CEA65
:1016A000006C186B090441EA0061586947EA0E07AB
:1016B0004CEA000C586AC2F884719F699B6A014326
:1016C0004CEA072741EA0323C8F88871C8F88C312F
:1016D000D2F88031DFF8A8802A4F43F00103C2F826
:1016E0008031FEF7F1FF00EB050A336804E037EACA
:1016F000020209D06A1C22D19A68002CF7D0012C72
:1017000018D038EA0202F5D196F83830322B4FF073
:1017100000000CBF2223012386F8383086F83900F8
:10172000BDE8F08783681C011FD48368D9001ED5EB
:10173000022488E739EA0202E6D06A1CDCD0FEF710
:10174000C3FF5045D1D30320002386F8380086F824
:101750003930E5E7DF6839435F6841EAC701D2F80D
:1017600080713943C2F8801184E701246BE70423B8
:1017700086F838300120D3E70220704700030008C4
:10178000000003100300000490F83830012B03D050
:10179000DAB2222A40F0888090F83930012B00F02C
:1017A000838003684FF0010C80F839C09A685101BA
:1017B00070D54FF0000C03EB0C1170B5D1F88021FF
:1017C00002F00102C1F88021026B94684FEA0C1C00
:1017D000002C6BD11568D46844EA4554D1F8805187
:1017E0002C43C1F88041D1F884411569D66924F0B1
:1017F0000F0405F00F051561C1F88441D46A4FEA62
:10180000044E146A360446EA0464166B4EEA066E09
:1018100056693443566A4EEA060ED1F88461354360
:10182000C1F884519569926A9C4444EA05244EEAC1
:101830000222CCF88841CCF88C2190F83820222A5A
:101840004FF000040CBF3222122280F8382080F8BA
:101850003940C4635A6942F480725A615A6942F449
:1018600000725A615A6942F480625A615A6942F4BC
:1018700000625A615A6942F400425A615A6942F060
:1018800001025A61D1F8803143F001032046C1F8CA
:10189000803170BD9A6812018DD49A6812F080521E
:1018A0000FD04FF0020C86E702207047D5682C431A
:1018B000556844EAC504D1F880512C43C1F88041F1
:1018C00091E71046704700BFF8B590F83930012B0A
:1018D00000F0878090F83830122B154608BF32236D
:1018E0004FF0010218BF222380F8392080F83830E9
:1018F00006460C46FEF7E8FE471933687CB9DA68FD
:1019000091070FD1681CF9D0FEF7DEFEB842F4D380
:101910000320002386F8380086F83930F8BD1A69AC
:101920009207EFD003EB0417726BD7F8B01101F0F8
:101930000401916000294AD0D7F8B011C90851605C
:10194000D7F8B001D7F8B45100F00200D060D7F852
:10195000B40103EB0411C0F307205063D1F8B801C0
:10196000C0B25061D1F8B801C0F307209061D1F83E
:10197000B801C0F30740D061D1F8B801000E106281
:10198000D1F8BC01C0B25062D1F8BC01C0F307204D
:101990009062D1F8BC01D1F8BC1105F00F05C0F37D
:1019A0000740090E1561D0621163ACB9DA6842F0E4
:1019B0002002DA6096F83830322B4FF000000CBF6E
:1019C0001223012386F8383086F83900F8BDD7F89D
:1019D000B011490D1160B3E71A6942F020021A6193
:1019E000E8E70220F8BD00BF90F83830012B02D0A4
:1019F000DAB2122A38D190F83930012B34D010B431
:101A000090F83830122B4FF001020CBF3223222302
:101A100080F8392080F8383000220368C2635C699E
:101A200044F480745C615C6944F400745C615C69DA
:101A300044F480645C615C6944F400645C615C69EA
:101A400044F400445C6180F8392031B1596910BC1C
:101A500041F010011046596170475A6910BC42F0BC
:101A6000020208465A6170470220704738B590F864
:101A70003930012B30D0044602680223012084F85B
:101A8000390084F83830136823F0030343F002036D
:101A90001360536803F00303022B00D038BDFEF738
:101AA00013FE00F10A0503E0FEF70EFEA8420CD279
:101AB00023685B6803F00303022BF5D100200123A8
:101AC00084F8383084F8390038BD0320002384F8C6
:101AD000380084F8393038BD022038BD38B590F868
:101AE0003930012B29D002680121022380F83910F6
:101AF00080F83830136823F0020313600446FEF7C1
:101B0000E3FD00F10A0503E0FEF7DEFDA8420DD279
:101B100023685A689207F7D4586810F002000ED173
:101B2000012384F8383084F8390038BD03200023BD
:101B300084F8380084F8393038BD022038BD0120DF
:101B400038BD00BF704700BF704700BF026838B59E
:101B500002EB011E436BDEF8B04104F004049C600C
:101B6000002C6DD1DEF8B041640D1C60DEF8B04190
:101B7000DEF8B45104F00204DC60DEF8B44102EB9C
:101B8000011CC4F307245C63DCF8B841E4B25C6177
:101B9000DCF8B841C4F307249C61DCF8B841C4F315
:101BA0000744DC61DCF8B841240E1C62DCF8BC415F
:101BB000E4B25C62DCF8BC4105F00F05C4F3072415
:101BC0001D619C62DCF8BC51DCF8BC41C5F30745E3
:101BD000240EDD621C6351BBD36843F02003D36045
:101BE000536923F00203536190F83830222B13D14C
:101BF000536923F480735361536923F40073536171
:101C0000536923F480635361536923F40063536180
:101C1000536923F40043536190F83830322B0CBFE2
:101C20001223012380F83830FFF78EFF38BD136987
:101C300043F020031361536923F010035361D3E78A
:101C4000DEF8B041E4085C6090E700BF704700BF79
:101C500003685A6970B5D50704460DD59D68664876
:101C60009A6866499E68A84302EA01026FD08A42D8
:101C70006DD0634AB2436AD0DA685969900702D0DE
:101C8000890700F18D801A695969920702D0CE0642
:101C900000F18C809A6959695869D50701D5CA0540
:101CA0004AD49A6959695869950701D5890538D484
:101CB0009A6959695869560701D54D0526D49A691C
:101CC0005969586912F0700F16D0090514D502042D
:101CD00012D59A6902F07002402A7DD073D8202A6A
:101CE00000F08480302A67D1E26B42F02002E26388
:101CF0009A6922F070029A61E36B03B970BD012307
:101D000084F838302046FFF7A1FF70BD0004D6D517
:101D1000E26B42F00402E2639A6922F004029A61E3
:101D2000CDE70204C4D5E26B42F00202E2639A6995
:101D300022F002029A61BBE70604B2D5E26B42F0E0
:101D40000102E2639A6922F001029A61A9E75A69E5
:101D500022F001025A6194F83820122A13D15A69EC
:101D600022F480725A615A6922F400725A615A69E7
:101D700022F480625A615A6922F400625A615A69F7
:101D800022F400425A6194F83830322B0CBF2223DF
:101D9000012384F838302046FFF7D4FE23686BE730
:101DA00000212046FFF7D2FE23686CE70121204680
:101DB000FFF7CCFE23686DE7102A99D1E26B42F061
:101DC0000802E26394E7502A0BD0602A90D1E26BBC
:101DD00042F48072E2638BE7E26B42F04002E2631E
:101DE00086E7E26B42F08002E26381E7E26B42F059
:101DF0001002E2637CE700BF030000040003000858
:101E00000000031090F83800704700BFC06B7047A7
:101E10000749CA6803024FF6FF0003F4E06302407B
:101E2000134343F0BF6343F40033CB60704700BFFC
:101E300000ED00E01D4BDB68C3F3022300B5C3F1E6
:101E4000070EBEF1040F03F1040C28BF4FF0040E7F
:101E5000BCF1060F1CD9033B4FF0010C0CFA03FC3C
:101E60000CF1FF3C0CEA020C012202FA0EF2013ADC
:101E70000A409A40002842EA0C020DDB00F1604063
:101E8000120100F56140D2B280F800235DF804FB36
:101E90004FF0000C6346E7E7054B00F00F0012011E
:101EA0000344D2B21A765DF804FB00BF00ED00E0F7
:101EB000FCEC00E04109044A00F01F00012303FA92
:101EC00000F042F82100704700E100E043090549B5
:101ED00000F01F000122203302FA00F041F8230035
:101EE000704700BF00E100E0BFF34F8F0449054B8E
:101EF000CA6802F4E0621343CB60BFF34F8FFEE782
:101F000000ED00E00400FA050138B0F1807F0FD247
:101F100010B44FF0E023074C58614FF0F00C84F8F8
:101F200023C00022072110469A6110BC1961704736
:101F30000120704700ED00E0024BD868C0F302209A
:101F4000704700BF00ED00E0002810B424DB00F172
:101F5000604000F5614090F80003000901F00701BE
:101F6000C1F1070CBCF1040F01F1040428BF4FF0CC
:101F7000040C062C0ED9033901248C40013C04408A
:101F8000C840012101FA0CF10139014011601C60C7
:101F900010BC70470024F4E7034C00F00F00044429
:101FA000207E0009DAE700BFFCEC00E043090549A8
:101FB00000F01F000122403302FA00F041F8230034
:101FC000704700BF00E100E043094033064A00F0DB
:101FD0001F0052F82320012303FA00F0104214BF1F
:101FE00018460020704700BF00E100E043090549A2
:101FF00000F01F000122603302FA00F041F82300D4
:10200000704700BF00E100E043098033064A00F05A
:102010001F0052F82320012303FA00F0104214BFDE
:1020200018460020704700BF00E100E04FF0E022BA
:10203000042813690CBF43F0040323F00403136165
:10204000704700BF704700BF08B5FFF7FBFF08BD32
:10205000704700BF60B110B5437904462BB102222E
:10206000012362716371002010BDFFF7F1FFF6E7F5
:1020700001207047704700BF48B110B502230446E5
:102080004371FFF7F7FF00206071207110BD012040
:10209000704700BF0379012B13D0022310B44371A2
:1020A0008AB10439046801EB820251F8043F2360CD
:1020B0009142FAD10122002342710371206810BCC1
:1020C0007047022070470468F4E700BF0379012BD2
:1020D00017D010B4022304684371A36843F00103CE
:1020E000A3603AB1043901EB820251F8043F236046
:1020F0009142FAD10122002342710371206810BC81
:1021000070470220704700BF40797047704700BF9A
:1021100070B110B5037904463BB1002302210122BE
:10212000217123612271184610BDFFF7EFFFF4E71C
:1021300001207047704700BF50B110B5022304461C
:102140000371FFF7F7FF002020616071207110BD5F
:10215000012070474379012B2BD00268022310B471
:102160000371146801238B402343136071B9116814
:1021700013684C0703D503F03803382B14D0002321
:1021800001220271437110BC184670471168136830
:102190004903F4D503F46013B3F5601FEFD153681E
:1021A00043F002035360EAE7536843F001035360CE
:1021B000E5E70220704700BF034600684FF0010CBE
:1021C00002680CFA01F122EA01020260002083F8A1
:1021D00004C07047F8B504464079069F01284DD0E9
:1021E0000D461146012262710222266822713DBB12
:1021F000A0683268DFF8D0C0C0F83CC0DFF8CCC0BF
:10220000C0F840C042F48052DFF8C4C0C0F848C0F3
:10221000042F32603AD0082F35D08FB32A46376862
:1022200047F40057376000F063FF2268012310680D
:1022300003FA05F101430023116063711846F8BDEC
:10224000E0683268DFF88CC0C0F83CC0DFF888C0B6
:10225000C0F840C042F08052DFF880C0C0F848C0EB
:10226000042F326027D0082F1CD097B1376847F071
:1022700000570022376000F03BFFD6E70220F8BD90
:1022800006F10802CBE706F11002C8E706F10C02DE
:10229000C5E7376847F0005706F11402376000F0D1
:1022A00027FFC2E7376847F0005706F11C02376086
:1022B00000F01EFFB9E7376847F0005706F1180233
:1022C000376000F015FFB0E72D2300084123000818
:1022D00051230008DD240008ED240008F92400083B
:1022E000036810B51A6804464FF48050884022EA0B
:1022F00000021A601A680120884022EA00021A606F
:1023000041B9A06800F02AFF01280CBF0423012373
:10231000237110BDE06800F021FFF5E7036809B9FB
:10232000D86A7047186B7047704700BF10B5846B50
:102330002046FFF7F9FF0123237110BD704700BF4E
:1023400008B5806BFFF7FAFF08BD00BF704700BFFC
:1023500010B5846B236943F0040323612046FFF723
:10236000F5FF0123237110BD704700BF0268516B58
:1023700011F4005F4FF00401017108B501690DD03F
:1023800041F001010161536B43F40053536313683F
:1023900023F480531360FFF7E7FF08BD41F002010B
:1023A0000161536B43F000535363136823F0805370
:1023B0001360BDE8084000F08FB800BF4379012BDF
:1023C00020D0022310B40371D1E9003184460E48B5
:1023D0000B43046840F6FE71914024EA01019340EA
:1023E0000B4303600368C02101FA02F223EA0202F0
:1023F0000021012302608CF804308CF80510084697
:1024000010BC7047022070470074004010B483B0C5
:10241000006800240194019049B9019908310A44E7
:102420000192019A0020136003B010BC704701991B
:1024300014310A440192F4E700797047006970474B
:102440000368DA6A186B42EA004070470346407935
:10245000012812D010B4186802241C71046842F0DC
:1024600080028A40224300214FF0010C026083F871
:1024700004C05971084610BC70470220704700BF65
:1024800003464079012812D010B4186802241C7148
:10249000046842F040028A40224300214FF0010CC0
:1024A000026083F804C05971084610BC70470220CE
:1024B000704700BF08290CBF42EA032242EA0342E8
:1024C000036820330020CA50704700BF704700BF28
:1024D000704700BF704700BF704700BF10B5846BE6
:1024E0002046FFF7F3FF0123237110BD08B5806B71
:1024F000FFF7EEFF08BD00BF10B5846B236943F002
:10250000040323612046FFF7E5FF0123237110BD7B
:10251000704700BF002847D038B590F825300446F2
:10252000002B3ED0022284F8252060686269E568AD
:10253000236802432A43256919682A43A56821F4C0
:102540007F612A43A56921F0080119602A43256AA1
:1025500019682A430A4310281A6002D1134AE16914
:102560009161DA6842F01002DA60DA6842F008023B
:10257000DA60DA684FF0010C42EA0C02DA60DA68DD
:1025800042F00402DA60DA6842F00202DA601A68A5
:10259000002142F480421A60E16384F825C00846B5
:1025A00038BDFFF7B5FFBDE70120704700000550BB
:1025B000704700BF10B50446FFF7FAFF0020E06344
:1025C00084F8240084F8250010BD00BF844690F8EC
:1025D0002400012859D0F0B50220DCF800408CF826
:1025E000250001278CF824702068DFF8A4E020F093
:1025F0000200206020680143DCF838002160B3F558
:10260000803F2449C16383B0C0F848E038D34164B7
:10261000CCF82870CCF82C30DCF82C30CCF83420F6
:10262000B3F5803F15460ED3DCF82C305B08CCF8B0
:102630002C30DCF828305B00CCF82830DCF82C306B
:10264000B3F5803FF0D2DCF82830023BCCF82830DC
:10265000DCF82830CCF83030DCF82C30DCF82C20DA
:10266000009204F1280105EB83032A4603F0D0FF12
:10267000094A1368002043F00103136003B0F0BD62
:1026800004F1280100F034FDF2E70220704700BF9A
:10269000112700082D2700080000055001681A4A7C
:1026A000022370B580F825300B6823F480430B605B
:1026B000136823F0010313600546FEF705F800F5E3
:1026C0007A7603E0FEF700F8B04210D22B681C685F
:1026D00014F00104F6D1A86B00F040FDEA6BEA6348
:1026E000012385F8244085F82530204670BDEB6B2A
:1026F0000324002243F02003EB6385F8242085F8AF
:102700002540204670BD00BF00000550704700BF47
:1027100008B5806B012380F82530FFF7F7FF08BD6F
:10272000704700BF704700BF704700BF10B5846B93
:10273000012384F82530A36A73B1A06B036819687C
:10274000A26A12F0010219D01A6812032DD523686B
:102750009B68DB070BD410BDA36B1B681A681103C1
:1027600018D5626BDA6023689B68DB07F3D500231A
:1027700084F824302046FFF7D7FF10BD0903E3D5C6
:10278000DB68E16A03EBC10103F088FFA36A013B48
:10279000A362DCE71A681203D9D4D4E90C12E06A08
:1027A00002EB80021A61A162D1E71B69E16A012292
:1027B000E8E700BF03689A68520710B5044602D5DF
:1027C0001A69500727D49A68910702D51A699207A7
:1027D0003AD49A68D00602D51A69D1064ED49A68BE
:1027E000120702D51A69100754D49A68D10702D586
:1027F0001A69D20700D410BDDA6822F00102DA604B
:102800005A69002142F001025A61204684F82410DE
:10281000FFF78AFF10BDDA6822F00402DA605A6915
:1028200004210A435A61E36B002043F00203E3638F
:1028300084F8240084F82510A06B00F08FFC20465B
:10284000FFF764FF2368BEE7DA6822F00202DA606D
:102850005A6942F002025A61E36B042143F001031A
:102860000020E36384F8240084F82510A06B00F0B6
:1028700075FC2046FFF74AFF2368AAE75A69002142
:1028800042F010025A61204684F82410FFF748FFF6
:102890002368A4E7DA6822F00802DA605A690021A6
:1028A00042F008025A61204684F82410FFF73AFFEC
:1028B00023689AE7844690F82400012816D000B5D2
:1028C000DDF804E002208CF82500094843EA0E43B5
:1028D00041EA02414FF0010E0022436201628CF88E
:1028E00025E08CF8242010465DF804FB0220704798
:1028F0000000055090F82430012B10D00949022324
:1029000080F825300A68002322F004024FF0010C01
:102910000A6080F825C080F82430184670470220ED
:10292000704700BF0000055090F82430012B10D0F4
:102930000949022380F825300A68002342F0040286
:102940004FF0010C0A6080F825C080F8243018464A
:1029500070470220704700BF0000055090F8250026
:10296000704700BFC06B7047002837D0034630B4B3
:10297000D0E90042D0E9020102430A43D3E90451FD
:1029800002202A4383F835000A43D3E906010243B3
:102990000A43D3E90801256802431148042900EAE3
:1029A000050042EA00020CD02260626922F00702B0
:1029B0001143002001226161D86483F8352030BCC6
:1029C0007047D3E90B1001430A43226061699A6A98
:1029D00021F00701114341F00401EAE701207047AB
:1029E0003F8014F090F83530022B00F0B780036878
:1029F000196810B4A84C002221F001011960A3420B
:102A00001A605A609A60DA601A614FF021025A61C6
:102A100050D9A24AA4F58964A342D16800F02C8160
:102A200004F58064A34200F0F380A4F56874A34227
:102A300000F0908104F58064A34200F08B81A4F53E
:102A40008964A34200F0058104F58064A34200F08C
:102A50000081A4F56874A34200F0FB8088329342A1
:102A600000F0A582A2F58962934200F0508202F53F
:102A70008062934200F04B82A2F56872934200F0AC
:102A8000468202F58062934200F04182834B41F01E
:102A90008071D960DA6842F00062DA60DA6842F088
:102AA0000072DA60DA6842F48002DA60DB684FF0C4
:102AB0008064C2E07A4A934252D97A4C7749A34261
:102AC0008A6800F05D8104F58064A34200F0B38160
:102AD000A4F56874A34200F0988104F58064A342D1
:102AE00000F09381A4F58964A34200F0FD8104F510
:102AF0008064A34200F0F881A1F55E718B4200F082
:102B00001A8201F580618B4200F01582A1F589617E
:102B10008B4200F0658201F580618B4200F060829B
:102B2000A1F568718B4200F05B8201F580618B42F8
:102B300000F05682594B42F080729A609A6842F0D7
:102B400000629A609A6842F000729A609A6842F451
:102B500080029A609B684FF0806426E101207047F4
:102B6000514A524C4F49934240F2A2808B42E26854
:102B700000F0708101F580618B4200F01A81A1F5AF
:102B800068718B4200F09A8101F580618B4200F000
:102B90009581A1F589618B4200F0368201F5806153
:102BA0008B4200F0DC81A1F568718B4200F0D78187
:102BB00001F580618B4200F0D281A1F589618B42E1
:102BC00000F0488201F580618B4200F04382A1F55C
:102BD00068718B4200F03E8201F580618B4200F00B
:102BE0003982324B42F08072DA60DA6842F0006279
:102BF000DA60DA6842F00072DA60DA6842F4800281
:102C0000DA60DB684FF08061284A0B43D36017E03D
:102C100041F4000141F00401D160D36843F0200386
:102C2000D360D36843F008031024D360D16841F423
:102C3000000141F00101D160D368184A2343D360F9
:102C40000023C36480F8343080F8353010BC184657
:102C5000704741F48071D160D36843F40063D3605E
:102C6000D36843F40073D360D36843F04003D36068
:102C7000D3684FF48064E0E741F4000141F00401BF
:102C8000D160D16841F02001D160D16841F00801E4
:102C90001024D160CAE700BF5864024000640240BB
:102CA000B86002401060024058600240006002407C
:102CB0008B42A26800F0DD8001F580618B4200F05C
:102CC0008E80A1F568718B4200F0E28001F5806191
:102CD0008B4200F0DD80A1F589618B4200F0A78175
:102CE00001F580618B4200F04E81A1F568718B4245
:102CF00000F0498101F580618B4200F04481A1F52B
:102D000089618B4200F0BA8101F580618B4200F04D
:102D1000B581A1F568718B4200F0B08101F5806149
:102D20008B4200F0AB81AC4B42F080729A609A68A3
:102D300042F000629A609A6842F000729A609A6863
:102D400042F480029A609B684FF08061A24A0B4374
:102D5000936075E741F4000141F00401D160D3684C
:102D600043F02003D360D36843F00803D360D368F3
:102D700043F4000343F00103D360D36810245CE7FD
:102D800042F4000242F004028A608A6842F02002A3
:102D90008A608A6842F0080210248A608A6842F4D5
:102DA000000242F001028A608B688C4A23439360E0
:102DB00046E742F4000242F00402E260E36843F0B6
:102DC0002003E360E36843F008031021E360E26856
:102DD00042F4000242F00102E260E36814E742F4C8
:102DE000000242F00402A260A36843F02003A36043
:102DF000A36843F008031021A360A26842F4000214
:102E000042F00102A260A368A0E742F4000242F08F
:102E100004028A608B6843F020038B608B6843F068
:102E200008038B608B6843F4000343F001038B605D
:102E30008B681024B9E742F4000242F004028A6071
:102E40008B6843F020038B608B6843F008031024E9
:102E50008B60A3E742F4000242F00402E260E26801
:102E600042F02002E260E26842F008021021E260D3
:102E7000ADE742F4000242F00402A260A26842F010
:102E80002002A260A26842F008021021A260B4E70A
:102E900042F4000242F00402A260A36843F020035F
:102EA000A360A36843F00803A360A36843F400038E
:102EB00043F00103A360A368102147E742F4000236
:102EC00042F00402E260E36843F02003E360E36859
:102ED00043F00803E360E36843F4000343F00103B5
:102EE000E360E36810218FE642F480728A608B68A9
:102EF00043F400638B608B6843F400738B608B68D2
:102F000043F040038B608B684FF480644DE7334B94
:102F100041F48021D960DA6842F40012DA60DA689C
:102F200042F40022DA60DA6842F48032DA60DB6868
:102F30004FF4801481E6294B42F480729A609A68BB
:102F400042F400629A609A6842F400729A609A6849
:102F500042F040029A609B684FF4806425E71E4B64
:102F600042F48072DA60DA6842F40062DA60DA68A9
:102F700042F40072DA60DA6842F04002DA60DB683C
:102F80004FF4806140E6144B42F480729A609A6874
:102F900042F400629A609A6842F400729A609A68F9
:102FA00042F040029A609B684FF48061CEE60B4B82
:102FB00041F48071D960DA6842F40062DA60DA685C
:102FC00042F40072DA60DA6842F04002DA60DB68EC
:102FD0004FF4806431E600BF0060024000640240AC
:102FE000304B42F480229A609A6842F400129A6050
:102FF0009A6842F400229A609A6842F480329A6099
:103000009B684FF48014D0E642F48072E260E3687B
:1030100043F40063E360E36843F40073E360E36850
:1030200043F04003E360E3684FF48061ECE542F471
:103030008072A260A36843F40063A360A36843F4B2
:103040000073A360A36843F04003A360A3684FF438
:1030500080617BE6144B42F48022DA60DA6842F445
:103060000012DA60DA6842F40022DA60DA6842F4C8
:103070008032DA60DB684FF48011C5E50A4B42F418
:1030800080229A609A6842F400129A609A6842F428
:1030900000229A609A6842F480329A609B684FF4EA
:1030A000801153E6006402400060024030B490F8A2
:1030B0003440012C19D0012480F83440022480F8D7
:1030C0003540046885682068402D20F001002060AC
:1030D00063600BBFA260A160E160E260236843F01F
:1030E00001030020236030BC7047022030BC7047D1
:1030F00030B490F83440012C2DD0012480F83440B5
:10310000022480F83540046885682068402D20F04E
:103110000100206063600BBFA260A160E160E2601B
:10312000236843F010032360236843F008032360FF
:10313000236843F004032360636943F08003636101
:10314000236843F002032360236843F00103002057
:10315000236030BC7047022030BC7047026838B52D
:10316000136823F0010313600446FDF7ADFA00F580
:103170007A7503E0FDF7A8FAA8420BD223681B6812
:1031800013F00103F6D1012284F8343084F835209D
:10319000184638BDE26C032342F020020021E264AD
:1031A00084F8341084F83530184638BD2DE9F04FD6
:1031B00085B00468B04B029181461546002940F065
:1031C0001B829C4237D003F580639C4233D0A3F529
:1031D00068739C422FD003F580639C422BD0A3F5EB
:1031E00089639C4200F0428303F580639C4200F0B7
:1031F0003D83A3F568739C4200F0388303F5806338
:103200009C4200F03383A3F589639C4200F07187F0
:1032100003F580639C4200F06C87A3F568739C42C1
:1032200000F0678703F580639C420CBF4FF40014E5
:103230004FF0006400E02024FDF746FA8F4EDFF8DF
:103240004082DFF834B2CDF8049043190393019B18
:103250008C4F1B68DFF830C2DFF830E2DFF830A2B5
:10326000A946B34262D98B494A68224240F0228380
:103270005B45486800F09D80BB4200F09A80634542
:1032800000F09780734500F09480534500F09381DF
:10329000814A934200F08F81A2F56872934200F058
:1032A0008A8102F58062934200F0FA82A2F5896277
:1032B000934215D002F58062934211D0A2F5687254
:1032C00093420DD002F58062934209D071494A6859
:1032D000496800F000704FF0807502F4800208E049
:1032E0006C494A68496800F400204FF4802502F4D4
:1032F000803229400143114366D1B9F1FF3FB0D07C
:103300004D468946FDF7E0F9039B98429FD3CA4694
:10331000DDF80490D9F84C3089F834A0032043F04C
:103320002003C9F84C3089F8350062E1434540F28A
:10333000BB80584A1168214240F029845B451068DF
:1033400000F09280BB4200F08F80634500F08C80DB
:10335000734500F08980534500F08A814E498B42C5
:1033600000F086814D4A934200F0438202F580626C
:10337000934200F03E82A2F58962934200F06C8293
:1033800002F58062934200F06782A2F56872934270
:1033900000F0628202F58062934200F05D823D4956
:1033A0000A68096800F000704FF0807502F480022E
:1033B0009FE74D683A4A49682A403A4D00F00800B4
:1033C00029400143114398D02C4ADDF804909342E0
:1033D00040F25781284852F84C1C8342A2F158020F
:1033E00000F0F28000F58060834200F0ED80A0F5EF
:1033F0006870834200F0E88000F58060834200F04E
:10340000E380A0F58960834200F01B8200F58060B4
:10341000834200F01682A0F56870834200F01182AA
:103420008832934200F0D787A2F58962934200F078
:10343000AC8602F58062934200F0A786A2F568721E
:10344000934200F0A28602F58062934200F09D86CE
:10345000104B41F00071D960DA6842F48002DA6002
:10346000DB684FF08070BAE0156811680C4A00F014
:1034700008002A400B4D3CE71060024058640240AF
:10348000B860024010640240706002407064024004
:1034900028600240006402402864024088600240C4
:1034A00001008000040080009C4A93423ED952F8FB
:1034B000541C2142A2F1580240F07C855B455068C3
:1034C00071D0BB426FD063456DD073456BD053450F
:1034D00000F00183924A934200F07781A2F568726E
:1034E000934200F0728102F58062934200F06D8198
:1034F000A2F58962934200F0BF8102F58062934297
:1035000000F0BA81A2F56872934200F0B58102F52D
:103510008062934200F0B08182494A68496800F0B5
:1035200000704FF0807502F48002E2E67D4A116877
:10353000214240F07F855B45106895D0BB4293D017
:10354000634591D073458FD0534500F09180744A04
:10355000934200F04481A2F56872934200F03F81EB
:1035600002F58062934200F03A81A2F589629342AB
:1035700000F08C8102F58062934200F08781A2F511
:103580006872934200F0828102F58062934200F0FB
:103590007D8164490A68096800F000704FF0807509
:1035A00002F48002A5E6556851685F4A00F0080001
:1035B0002A405E4D9DE64A68496800F4007002F0BA
:1035C00040024FF4807594E641F00801D160D16863
:1035D000564841F4000141F00101D160D368544ADA
:1035E0000343D3600422002389F8352089F834305E
:1035F000012005B0BDE8F08F9C4237D003F5806311
:103600009C4233D0A3F568739C422FD003F58063AE
:103610009C422BD0A3F589639C4200F02A8103F5DC
:1036200080639C4200F02581A3F568739C4200F002
:10363000208103F580639C4200F01B81A3F5896320
:103640009C4200F0528503F580639C4200F04D855A
:10365000A3F568739C4200F0488503F580639C42A3
:103660000CBF4FF480144FF08064E5E51024E3E5CF
:103670001568116800F4007005F040024FF4807581
:1036800037E62C4A934257D92949A83A9342886889
:1036900000F0C88002F58062934200F0C380A2F57A
:1036A0006872934200F0BE8002F58062934200F09F
:1036B000B980A2F58962934200F00B8502F5806221
:1036C000934200F00685A2F56872934200F0698685
:1036D00002F58062934200F06486A2F5896293420B
:1036E00000F0C98602F58062934200F0C486A2F51C
:1036F0006872934200F0BF8602F58062934200F048
:10370000BA860B4A40F000709060936843F48003DF
:10371000936093684FF080708FE000BF5860024064
:103720002864024000600240010080000400800024
:1037300000640240B8600240B24AB348934240F28B
:10374000D381483A9342C1685DD002F580629342CA
:1037500059D0A2F56872934255D002F58062934227
:1037600051D0A2F58962934200F0628702F580622F
:10377000934200F00986A2F56872934200F0048635
:1037800002F58062934200F0FF85A2F589629342C0
:1037900000F0AA8702F58062934200F0A587A2F5A7
:1037A0006872934200F0A08702F58062934200F0B5
:1037B0009B87954A41F00071D160D36843F4800340
:1037C000D360D3684FF0807128E08F494A68496818
:1037D00000F400704FF4807502F0400289E58A49D8
:1037E0000A68096800F400704FF4807502F0400226
:1037F0007FE586490A68096800F400704FF4807517
:1038000002F0400275E541F00801C160C3688049DB
:1038100043F4000343F00103C360C3687A4A0B43D7
:10382000D360DFE640F0080088608B68784843F496
:10383000000343F001038B608B68744A0343936079
:10384000D0E641F40071D160D36843F04003D36007
:10385000D3684FF48070C2E66C490A68096800F4C6
:1038600000204FF4802502F4803242E54FF40064DA
:10387000E2E44FF48064DFE463494A68496800F495
:1038800000204FF4802502F4803232E55E490A6858
:10389000096800F400204FF4802502F4803228E506
:1038A0005A494A68496800F400704FF4807502F084
:1038B00040021EE55748DDF80490CA68834236D0BE
:1038C00055498B4233D0A1F568718B422FD001F559
:1038D00080618B422BD0A1F589618B4200F0F68389
:1038E00001F580618B4200F0F183A1F568718B4294
:1038F00000F0EC8301F580618B4200F0E783A1F5D5
:1039000089618B4200F0CF8601F580618B4200F027
:10391000CA86A1F568718B4200F0C58601F5806109
:103920008B4214BF4FF080614FF4801100E01021F2
:103930000A433649CA60312289F83520029A002AA2
:1039400070D11A6812F4802F344A00F065819342D6
:1039500000F20B82324A934240F224842B49A83A67
:103960009342896800F00D8502F58062934200F071
:103970000885A2F56872934200F0038502F5806223
:10398000934200F0FE84A2F58962934200F09B8688
:1039900002F58062934200F09686A2F56872934227
:1039A00000F0918602F58062934200F08C86A2F5C9
:1039B0008962934200F0B88602F58062934200F07B
:1039C000B386A2F56872934200F0AE8602F580627B
:1039D000934214BF4FF000624FF400120B480A43A9
:1039E00082601A68120340F161811B681B0302D5D3
:1039F000212389F83530002089F8340005B0BDE86E
:103A0000F08F00BF58600240006002400064024036
:103A100004008000106002401064024058640240BC
:103A2000B86002401A6812F4802FA24A00F04E815A
:103A3000934200F2DF81A04A934240F207849F49FB
:103A4000A83A9342896800F0948402F58062934218
:103A500000F08F84A2F56872934200F08A8402F528
:103A60008062934200F08584A2F58962934200F05F
:103A70001E8602F58062934200F01986A2F56872F4
:103A8000934200F0148602F58062934200F00F86A4
:103A9000A2F58962934200F0598602F58062934252
:103AA00000F05486A2F56872934200F04F8602F54A
:103AB0008062934214BF4FF080624FF480127F48BF
:103AC0000A438260186810F4002040F064823123B9
:103AD00089F835308DE55568516800F4007005F0BF
:103AE00040024FF4807504E4754A816893423FD0E8
:103AF00002F5806293423BD0A2F56872934237D0C0
:103B000002F58062934233D0A2F58962934200F0BD
:103B10009B8502F58062934200F05084A2F56872A2
:103B2000934200F04B8402F58062934200F0468499
:103B3000A2F58962934200F0CA8502F58062934241
:103B400000F0C585A2F56872934200F0C08502F5C9
:103B50008062934200F0BB855A4A41F00071916047
:103B6000936843F48003936093684FF080710AE098
:103B700041F0080181608368534943F4000343F036
:103B80000103836083684F4A0B4393602AE54C49E5
:103B9000DDF8049092688B4200F0FB8101F58061B2
:103BA0008B4200F0F681A1F568718B4200F0F18143
:103BB00001F580618B4200F0EC81A1F589618B42B7
:103BC00000F0DC8301F580618B4200F0D783A1F522
:103BD00068718B4200F0D28301F580618B4200F066
:103BE000CD83A1F589618B4200F08B8501F5806161
:103BF0008B4200F08685A1F568718B4200F08185CB
:103C000001F580618B4214BF4FF080614FF4801149
:103C10000A432A498A608EE6934200F27581264A59
:103C2000934240F25C832549A83A9342896800F0A8
:103C3000A38302F58062934200F09E83A2F568722E
:103C4000934200F0998302F58062934200F09483DE
:103C5000A2F58962934200F0328502F580629342B8
:103C600000F02D85A2F56872934200F0288502F5D8
:103C70008062934200F02385A2F58962934200F0AE
:103C80004F8502F58062934200F04A85A2F5687282
:103C9000934200F0458502F5806293420CBF4FF4D9
:103CA00000134FF00063054A0B439360112389F81A
:103CB0003530A0E658640240B8600240006402401B
:103CC000106002400060024004008000934200F255
:103CD000D680B64A934240F21082B549A83A934240
:103CE000896800F0448302F58062934200F03F83CC
:103CF000A2F56872934200F03A8302F58062934223
:103D000000F03583A2F58962934200F0D48402F575
:103D10008062934200F0CF84A2F56872934200F073
:103D2000CA8402F58062934200F0C584A2F58962DC
:103D3000934200F0F18402F58062934200F0EC843B
:103D4000A2F56872934200F0E78402F58062934224
:103D50000CBF4FF480134FF08063954A0B43936080
:103D6000312389F83530002043E49149A2F5896276
:103D70009342C96800F0A28102F58062934200F08C
:103D80009D81A2F56872934200F0988102F58062ED
:103D9000934200F09381A2F58962934200F063841C
:103DA00002F58062934200F05E84A2F5687293424D
:103DB00000F0598402F58062934200F05484A2F529
:103DC0008962934200F0A48402F58062934200F07D
:103DD0009F84A2F56872934200F09A8402F5806293
:103DE000934214BF4FF000624FF4001270480A4330
:103DF000C260F6E56E49A2F589629342C96800F097
:103E00005F8102F58062934200F05A81A2F56872E8
:103E1000934200F0558102F58062934200F0508198
:103E2000A2F58962934200F0228402F580629342F7
:103E300000F01D84A2F56872934200F0188402F528
:103E40008062934200F01384A2F58962934200F0ED
:103E5000728402F58062934200F06D84A2F568726C
:103E6000934200F0688402F58062934214BF4FF0E1
:103E700080624FF480124E480A43C26022E64C49E9
:103E8000A2F589629342C96800F01C8102F5806244
:103E9000934200F01781A2F56872934200F01281FC
:103EA00002F58062934200F00D81A2F5896293428F
:103EB00000F0E08302F58062934200F0DB83A2F51C
:103EC0006872934200F0D68302F58062934200F05C
:103ED000D183A2F58962934200F0318402F58062B9
:103EE000934200F02C84A2F56872934200F027847C
:103EF00002F5806293420CBF4FF480134FF0806351
:103F00002B4A0B43D3602BE72949A2F589629342E0
:103F1000C96800F0D98002F58062934200F0D48035
:103F2000A2F56872934200F0CF8002F5806293425E
:103F300000F0CA80A2F58962934200F0A48302F5E2
:103F40008062934200F09F83A2F56872934200F072
:103F50009A8302F58062934200F09583A2F589620C
:103F6000934200F0E58302F58062934200F0E08323
:103F7000A2F56872934200F0DB8302F580629342FF
:103F80000CBF4FF400134FF00063094A0B43D3609A
:103F90008CE610213CE61B6813F400233FF4E3AEEB
:103FA000412389F835300020FFF723BBB860024079
:103FB00000640240A048DDF80490D168834279D0C3
:103FC0009E4A934276D0A2F56872934272D002F56F
:103FD000806293426ED0A2F58962934200F05683CC
:103FE00002F58062934200F05183A2F56872934219
:103FF00000F04C8302F58062934200F04783A2F503
:104000008962934200F0AF8302F58062934200F030
:10401000AA83A2F56872934200F0A58302F580623C
:10402000934214BF4FF080624FF480120A438449D8
:10403000CA6080E48048DDF80490916883423BD0F8
:104040007E4A934238D0A2F56872934234D002F58A
:104050008062934230D0A2F58962934200F00083DF
:1040600002F58062934200F0FB82A2F568729342EF
:1040700000F0F68202F58062934200F0F182A2F530
:104080008962934200F0418302F58062934200F01E
:104090003C83A2F56872934200F0378302F5806298
:1040A000934214BF4FF080624FF480120A43644978
:1040B0008A6040E41022B9E71022F7E7202295E653
:1040C0001022D8E610231BE720235EE74FF480611F
:1040D0002EE440F4007088608B6843F040038B60EE
:1040E0008B684FF48070FFF7A8BB4FF48014FFF784
:1040F000A3B84FF40014FFF79FB8524A934240F21E
:10410000C7814F49483A9342C96800F0B68202F528
:104110008062934200F0B182A2F56872934200F08F
:10412000AC8202F58062934200F0A782A2F5896218
:10413000934200F01B8302F58062934200F01683E5
:10414000A2F56872934200F0118302F580629342F7
:1041500000F00C83A2F58962934200F0198302F506
:104160008062934200F01483A2F56872934200F0DB
:104170000F8302F5806293420CBF4FF480134FF01F
:1041800080632F4A0B43D360EAE52F4B41F40021B3
:10419000D960DA6842F48032DA60DB684FF480205C
:1041A000FFF71DBA274A2649934240F20182483A56
:1041B0009342C96800F0738202F58062934200F076
:1041C0006E82A2F56872934200F0698202F5806205
:1041D000934200F06482A2F58962934200F0CC829F
:1041E00002F58062934200F0C782A2F568729342A2
:1041F00000F0C28202F58062934200F0BD82A2F517
:104200008962934200F0BE8202F58062934200F020
:10421000B982A2F56872934200F0B48202F580621E
:10422000934214BF4FF000624FF4001204480A4357
:10423000C260FFF7D6BB00BF1060024010640240AE
:10424000006002405860024000640240B24AB34934
:10425000934240F26981483A9342C96800F019825A
:1042600002F58062934200F01482A2F568729342D4
:1042700000F00F8202F58062934200F00A82A2F5FC
:104280008962934200F0758202F58062934200F0E9
:104290007082A2F56872934200F06B8202F5806230
:1042A000934200F06682A2F58962934200F0738225
:1042B00002F58062934200F06E82A2F5687293422A
:1042C00000F0698202F58062934214BF4FF0806271
:1042D0004FF4801291480A43C260FFF7F3BB8E4A45
:1042E0008E49934240F28480483A9342C96800F074
:1042F000C68102F58062934200F0C181A2F5687226
:10430000934200F0BC8102F58062934200F0B781D5
:10431000A2F58962934200F0328202F580629342F4
:1043200000F02D82A2F56872934200F0288202F517
:104330008062934200F02382A2F58962934200F0EA
:10434000248202F58062934200F01F82A2F5687217
:10435000934200F01A8202F5806293420CBF4FF440
:1043600000134FF000636D4A0B43D3609EE41023AB
:10437000F3E41022FFF7A3BB202394E44FF4806101
:1043800046E42022FFF72ABB644A41F40071D16061
:10439000D36843F04003D360D3684FF48071FFF7D4
:1043A0003DBA5F4A40F400709060936843F0400368
:1043B000936093684FF48070FFF73FBA574A41F417
:1043C00000719160936843F04003936093684FF4E9
:1043D0008071FFF7D8BB524B41F40071D960DA68A5
:1043E00042F04002DA60DB684FF48070FFF7F7B804
:1043F0004C4A8968934200F0508102F580629342F2
:1044000000F04B81A2F56872934200F0468102F5FC
:104410008062934200F04181A2F58962934200F0EC
:104420009F8102F58062934200F09A81A2F5687242
:10443000934200F0958102F58062934200F09081F2
:10444000A2F58962934200F0AC8102F5806293424A
:1044500000F0A781A2F56872934200F0A28102F5F4
:10446000806293420CBF4FF400134FF000632B4A5D
:104470000B4393601AE42A4A40F40020906093684A
:1044800043F48033936093684FF48020FFF7D5B9ED
:104490002449224A8B42926800F0FD8001F5806138
:1044A0008B4200F0F880A1F568718B4200F0F38038
:1044B00001F580618B4200F0EE80A1F589618B42AD
:1044C00000F04B8101F580618B4200F04681A1F53F
:1044D00068718B4200F0418101F580618B4200F0F0
:1044E0003C81A1F589618B4200F05E8101F580611C
:1044F0008B4200F05981A1F568718B4200F0548124
:1045000001F580618B420CBF4FF480134FF0806344
:10451000024913438B6023E458600240006002406C
:104520000064024010600240A24A8968934200F091
:10453000B88002F58062934200F0B380A2F5687201
:10454000934200F0AE8002F58062934200F0A980B1
:10455000A2F58962934200F0FD8002F580629342E9
:1045600000F0F880A2F56872934200F0F38002F543
:104570008062934200F0EE80A2F58962934200F0DF
:104580000D8102F58062934200F00881A2F5687205
:10459000934200F0038102F58062934214BF4FF012
:1045A00080624FF4801284480A438260FFF78ABA1F
:1045B000804A8968934264D002F58062934260D059
:1045C000A2F5687293425CD002F58062934258D0A3
:1045D000A2F58962934200F0B68002F580629342B0
:1045E00000F0B180A2F56872934200F0AC8002F551
:1045F0008062934200F0A780A2F58962934200F0A6
:10460000D68002F58062934200F0D180A2F56872F4
:10461000934200F0CC8002F58062934214BF4FF0C9
:1046200000624FF4001264480A438260FFF7D9B970
:1046300041F40071C160C36843F04003C360C368C4
:104640004FF48071FFF7EAB841F40071816083682C
:1046500043F04003836083684FF48071FFF793BA9F
:104660004FF4806222E54FF40062FFF7BFBB4FF4C6
:10467000806200E44FF4806342E4102381E520234C
:1046800071E62022CFE74FF400637EE44FF48062AE
:10469000CCE410221EE610233AE72023E7E620228E
:1046A000C4E510227FE74FF48011FFF741B94FF4C2
:1046B0008062FFF704BA4FF48063FFF74EBB4FF4FC
:1046C0000063FFF7F0BA4FF40062FFF787B93A4A88
:1046D00041F400219160936843F4803393609368C0
:1046E0004FF48021FFF74FBA334A41F40021D160E3
:1046F000D36843F48033D360D3684FF48021FFF74D
:104700008DB84FF48011FFF783BA4FF48012CDE4D7
:104710004FF40012FFF76ABB4FF48013FFF71DBB85
:104720004FF40013FFF7BFBA4FF40012FFF756B96A
:104730004FF4001329E44FF48012FFF79CBB4FF4B1
:104740008013FFF7DDBB4FF400626CE74FF480127B
:10475000FFF7B5B94FF4806225E74FF48063D7E6E1
:104760004FF4006383E64FF480125FE44FF48063FC
:1047700007E54FF48062ADE54FF4006256E54FF473
:104780000063F0E54FF4001250E54FF40013EAE542
:104790004FF48013F5E44FF480129BE54FF4801240
:1047A00001E74FF4001362E64FF48013B0E64FF4D4
:1047B000001238E710600240006002400368AE4A11
:1047C000934270B5194604463DD9AC48A2F58962BA
:1047D0009342406840D002F5806293423CD0A2F5FB
:1047E0006872934238D002F58062934234D0A2F5C9
:1047F0008962934200F0358702F58062934200F0AF
:104800003087A2F56872934200F02B8702F5806230
:10481000934200F02687A2F58962934201F0138348
:1048200002F58062934201F00E83A2F56872934212
:1048300001F0098302F5806293420CBF4FF400221D
:104840004FF0007209E08E4A934240F2EF838B48AA
:10485000A83A93420068BED10822104214BF012238
:104860000022002A6FD01A6855076CD51A68824852
:1048700022F0040283421A6040F2D584814D50F840
:104880004C2CAB42A0F1580048D005F58065AB42F6
:1048900044D0A5F56875AB4240D005F58065AB42C4
:1048A00001F05784A5F58965AB4200F0DF8605F578
:1048B0008065AB4201F09684A0F55E70834201F002
:1048C0001B8500F58060834201F07385A0F5896047
:1048D000834201F0C58400F58060834201F0C0840A
:1048E000A0F56870834201F0BB8400F580608342CC
:1048F00001F01486614842F00072C260E26C42F03E
:104900000102E264042284F83520002284F8342075
:10491000A26CA2B940684FF480025FE042F0080246
:10492000C260E26C42F00102E264042284F83520A5
:10493000002284F83420A26C002A01F09E822046D6
:104940009047236819464C4A93423DD94B48A2F5FB
:1049500089629342406840D002F5806293423CD025
:10496000A2F56872934238D002F58062934234D047
:10497000A2F58962934200F08B8602F58062934231
:1049800000F08686A2F56872934200F0818602F5F7
:104990008062934200F07C86A2F58962934201F026
:1049A0005A8202F58062934201F05582A2F5687244
:1049B000934201F0508202F5806293420CBF4FF4A3
:1049C00080324FF4800209E02D4A934240F27E8308
:1049D0002A48A83A93420068BED12B4A024214BF2B
:1049E00001220022002A64D05A69100661D55A6952
:1049F000214822F0800281425A6140F2B783214966
:104A00001E4A8B42D26841D001F580618B423DD075
:104A1000A1F568718B4239D001F580618B4235D0A8
:104A2000A1F589618B4201F03D8201F580618B42E5
:104A300001F03882A1F568718B4201F0338201F5F3
:104A400080618B4201F02E82A1F589618B4201F0D9
:104A5000FB8301F580618B4201F0F683A1F568715B
:104A60008B4201F0F183483083420CBF4FF4803019
:104A70004FF480000BE000BF586402400064024025
:104A8000B86002401060024001008000A148A249C5
:104A90000243CA60E16CA26C41F00201E1640420AF
:104AA000002184F8350084F834102AB1204690475C
:104AB00023689A4A93423CD9994A97499342496854
:104AC00040D002F5806293423CD0A2F568729342D6
:104AD00038D002F58062934234D0A2F589629342C5
:104AE00000F0D98502F58062934200F0D485A2F5EA
:104AF0006872934200F0CF8502F58062934200F025
:104B0000CA85A2F58962934201F0B38102F5806201
:104B1000934201F0AE81A2F56872934201F0A9813F
:104B200002F5806293420CBF4FF480224FF08072F6
:104B300009E07C4A934240F2D482794A7649934212
:104B40000968BED1784A114214BF01220022002A0E
:104B50005AD01A68910757D51A68704922F0020294
:104B60008B421A6040F229816B4AA1F589618B4220
:104B7000D26836D001F580618B4232D0A1F56871E0
:104B80008B422ED001F580618B422AD0A1F589613C
:104B90008B4201F08E8101F580618B4201F08981A9
:104BA000A1F568718B4201F0848101F580618B422F
:104BB00001F07F81A1F589618B4201F04D8301F500
:104BC00080618B4201F04883A1F568718B4201F04E
:104BD0004383564883420CBF4FF480204FF08070CF
:104BE00000E051484C490243CA60E16CA26C41F0BC
:104BF0000401E1640420002184F8350084F83410B5
:104C000032B1204690472368444A934240F2908054
:104C1000434A41499342496837D002F58062934242
:104C200033D0A2F5687293422FD002F5806293428E
:104C30002BD0A2F58962934200F0498502F580628B
:104C4000934200F04485A2F56872934200F03F85DC
:104C500002F58062934200F03A85A2F589629342A0
:104C600001F0458102F58062934201F04081A2F596
:104C70006872934201F03B8102F5806293420CBF5F
:104C80004FF480124FF0806200E01022114240F099
:104C90005C81234A20499342496800F0ED8002F587
:104CA0008062934200F0E880A2F56872934200F0BF
:104CB000E38002F58062934200F0DE80A2F5896213
:104CC000934200F0CB8402F58062934200F0C684E8
:104CD000A2F56872934200F0C18402F580629342AB
:104CE00000F0BC84A2F58962934201F0B08002F525
:104CF0008062934201F0AB80A2F56872934201F0AA
:104D0000A68002F5806293420CBF4FF400124FF070
:104D10000062B2E00100800000640240586402407A
:104D200010600240B860024004008000A0640240AD
:104D3000B84A934240F28581B74AB849934209681C
:104D400000F0918002F58062934200F08C80A2F521
:104D50006872934200F0878002F58062934200F00F
:104D60008280A2F58962934201F0698002F5806237
:104D7000934201F06480A2F56872934201F05F8073
:104D800002F58062934201F05A80A2F58962934253
:104D900001F0248202F58062934201F01F82A2F5A5
:104DA0006872934201F01A8202F5806293420CBF4E
:104DB0004FF480124FF0806256E0964A934240F2E0
:104DC000B483954902F552728B42926801F00D80CE
:104DD00001F580618B4201F00880A1F568718B427A
:104DE00001F0038001F580618B4200F0FE87A1F5A0
:104DF00089618B4201F0DF8101F580618B4201F016
:104E0000DA81A1F568718B4201F0D58101F58061ED
:104E10008B4201F0D081A1F589618B4201F00C83B6
:104E200001F580618B4201F00783A1F568718B4227
:104E300001F002837A4883420CBF4FF480204FF088
:104E40008070764902438A60E16CA26C41F00401F3
:104E5000E1640420002184F8350084F83410002A2D
:104E60007FF4CFAE68E7102211426ED16A4A6B49D7
:104E7000934209687FF413AF2022114214BF01222C
:104E80000022002A60D01A68D2065DD51A6856033F
:104E900000F12E821A68D10503D41A6822F010029C
:104EA0001A60604A934240F26B845B49583A8B42E5
:104EB000D26800F0A08701F580618B4200F09B87EB
:104EC000A1F568718B4200F0968701F580618B42F5
:104ED00000F09187A1F589618B4201F0778101F59E
:104EE00080618B4201F07281A1F568718B4201F003
:104EF0006D8101F580618B4201F06881A1F58961C6
:104F00008B4201F08D8201F580618B4201F0888235
:104F1000A1F568718B4201F0838201F580618B42BB
:104F20000CBF4FF400134FF000633C491343CB60B8
:104F3000E36BE06CE0641122002184F8341084F803
:104F40003520002B40F0228270BD1A6812070BD466
:104F5000344A93423FF69DAE2E4A934286D8324A57
:104F6000934240F2A083AAE31A68560300F112822A
:104F70001A68D10503D41A6822F008021A60294A77
:104F8000934240F296842449583A8B42D26800F00A
:104F90003B8701F580618B4200F03687A1F568718F
:104FA0008B4200F0318701F580618B4200F02C8745
:104FB000A1F589618B4201F0058101F580618B4289
:104FC00001F00081A1F568718B4201F0FB8001F5D1
:104FD00080618B4201F0F680A1F589618B4201F07E
:104FE0001B8201F580618B4201F01682A1F5687188
:104FF0008B4201F011820A4883420CBF4FF48010AB
:105000004FF0806005490243CA60312284F83520A0
:1050100010E200BFB860024010600240006402402D
:10502000A06402405864024058600240AA4AAB485B
:10503000934240F2F180483A934240687FF4CBAB10
:105040000AE4A54A934240F2C582A54AA349934285
:10505000496800F0308302F58062934200F02B83B0
:10506000A2F56872934200F0268302F580629342B3
:1050700000F02183A2F58962934200F01E8702F5B9
:105080008062934200F01987A2F56872934200F0A3
:10509000148702F58062934200F00F87A2F58962BF
:1050A000934201F0CD8002F58062934201F0C88006
:1050B000A2F56872934201F0C38002F580629342C8
:1050C0000CBF4FF480124FF08062F5E2824A8348B1
:1050D000934240F2BC82483A934240687FF43CAC31
:1050E0007BE47D4A934200F20A827D4A7B499342E7
:1050F000096800F00A8202F58062934200F005829E
:10510000A2F56872934200F0008202F58062934239
:1051100000F0FB81A2F58962934200F08C8602F5D3
:105120008062934200F08786A2F56872934200F095
:10513000828602F58062934200F07D86A2F5896244
:10514000934201F0478002F58062934201F0428071
:10515000A2F56872934201F03D8002F580629342AD
:105160000CBF4FF480224FF08072CFE15D4A914234
:1051700040F270815A4902F552728B42926800F0F7
:10518000378601F580618B4200F03286A1F56871A7
:105190008B4200F02D8601F580618B4200F028865D
:1051A000A1F589618B4201F00A8001F580618B4293
:1051B00001F00580A1F568718B4201F0008001F5D6
:1051C00080618B4200F0FB87A1F589618B4201F081
:1051D000378101F580618B4201F03281A1F5687160
:1051E0008B4201F02D81404883420CBF4FF4803048
:1051F0004FF480003D4902438A60E16CA26C41F0AB
:105200000201E1640420002184F8350084F83410A0
:10521000002A7FF44BAC90E4314A006893427FF45B
:10522000DAAAFFF719BB2F4A934240F28F832C482A
:105230002E4D8342AA6800F0EA8500F58060834223
:1052400000F03F86A0F56870834200F0E08500F52D
:105250008060834200F0DB85A0F58960834201F025
:105260002C8000F58060834201F06080A0F56870BA
:10527000834201F0448000F58060834201F03F806A
:10528000A0F58960834201F0F68000F580608342DA
:1052900001F02C81A0F56870834201F0EC8000F5EC
:1052A0008060834201F0E780104842F00072826023
:1052B000E26C42F00102E264042284F8352000220C
:1052C00084F83420A26C002A7FF439AB00684FF4D4
:1052D0008002FFF783BB00BF5860024000600240BD
:1052E00010600240B8600240A064024000640240C6
:1052F000544A934240F2F8815349583A8B42D2685B
:1053000000F07C8501F580618B4200F07785A1F586
:1053100068718B4200F0728501F580618B4200F06C
:105320006D85A1F589618B4200F03D8701F58061B3
:105330008B4200F03887A1F568718B4200F033870B
:1053400001F580618B4200F02E87A1F589618B42C7
:1053500001F06A8001F580618B4201F06580A1F562
:1053600068718B4201F06080384883420CBF4FF473
:1053700000104FF0006036490243CA601A681503F6
:1053800000F16D85636C002B3FF4DEAD2046BDE877
:10539000704018472B4A934240F23F822A49583ABC
:1053A0008B42D26800F02D8501F580618B4200F0C0
:1053B0002885A1F568718B4200F0238501F5806195
:1053C0008B4200F01E85A1F589618B4200F0EF86CB
:1053D00001F580618B4200F0EA86A1F568718B428D
:1053E00000F0E58601F580618B4200F0E086A1F5D2
:1053F00089618B4201F01C8001F580618B4201F0D4
:105400001780A1F568718B4201F012800F4883422A
:105410000CBF4FF480104FF080600D490243CA600A
:105420001A6815037FF5F1AD1A68100302D5412201
:1054300084F83520226C002A3FF48AAD204690473C
:10544000236885E55864024010600240A064024071
:1054500000640240A04A914240F274849F49583A45
:105460008B42D26800F0128501F580618B4200F01A
:105470000D85A1F568718B4200F0088501F580610A
:105480008B4200F00385A1F589618B4200F0CC8648
:1054900001F580618B4200F0C786A1F568718B42EF
:1054A00000F0C28601F580618B4200F0BD86A1F557
:1054B00089618B4201F0088001F580618B4201F027
:1054C0000380A1F568718B4200F0FE8701F58061D1
:1054D0008B420CBF4FF480314FF4800180480A4367
:1054E000C260E16CA26C41F00201E1640420002181
:1054F00084F8350084F83410002A7FF4D7AA774A5C
:105500007749934249687FF4F6AD764A114214BF59
:1055100001220022002A3FF494AD1A6892077FF519
:1055200073AB1A6822F002021A606B4A934200F2CF
:1055300059826A496A4A8B42926800F0AE8401F54A
:1055400080618B4200F0A984A1F568718B4200F064
:10555000A48401F580618B4200F09F84A1F58961EC
:105560008B4200F0698601F580618B4200F0648611
:10557000A1F568718B4200F05F8601F580618B4276
:1055800000F05A86A1F589618B4200F0928701F5FF
:1055900080618B4200F08D87A1F568718B4200F02D
:1055A000888701F580618B420CBF4FF480214FF05A
:1055B00080714B480A438260E16CA26C41F00401A7
:1055C000E1640420002184F8350084F83410002AB6
:1055D0007FF417AB414A4249934209685FD002F514
:1055E000806293425BD0A2F56872934257D002F575
:1055F0008062934253D0A2F58962934200F05584B1
:1056000002F58062934200F05084A2F568729342E2
:1056100000F04B8402F58062934200F04684A2F5CC
:105620008962934200F0148602F58062934200F092
:105630000F86A2F56872934200F00A8602F5806236
:1056400093420CBF4FF480124FF0806228E0234A4F
:10565000006893427FF480A9FFF7BFB94FF400625E
:105660000BE44FF40072FFF7F8B81D4842F40072E3
:10567000C260E26C42F00102E264042284F8352048
:10568000002284F83420A26C002A7FF458A94068D4
:105690004022FFF7A3B94FF48072FFF754BA1022EB
:1056A00011427FF452AC0D4A0D49934209687FF4D0
:1056B000F6AAFFF7E1BB102211427FF446AC074A7D
:1056C0000749934249687FF4EAAAFFF7D5BB4FF434
:1056D0008062FFF7DBBA00BF5860024010600240F2
:1056E0000060024004008000BA4A934200F29782B0
:1056F000B94A934240F26284B849583A8B42D26820
:1057000000F0428501F580618B4200F03D85A1F5F6
:1057100068718B4200F0388501F580618B4200F0A2
:105720003385A1F589618B4200F05A8601F58061CD
:105730008B4200F05586A1F568718B4200F05086CF
:1057400001F580618B4200F04B86A1F589618B42A7
:1057500000F0FF8601F580618B4200F0FA86A1F52A
:1057600068718B4200F0F58601F580618B420CBFB9
:105770004FF400114FF0006199480A43C260FDE503
:10578000944A934200F20582934A934240F25B842A
:105790009249583A8B42D26800F0F18401F5806159
:1057A0008B4200F0EC84A1F568718B4200F0E78435
:1057B00001F580618B4200F0E284A1F589618B42A2
:1057C00000F0128601F580618B4200F00D86A1F594
:1057D00068718B4200F0088601F580618B4200F011
:1057E0000386A1F589618B4200F0B78601F58061DF
:1057F0008B4200F0B286A1F568718B4200F0AD8655
:1058000001F580618B420CBF4FF400134FF0006331
:1058100073491343CB60FFF78BBB6E4A934200F290
:1058200073816D4A934240F27A836C49583A8B42B5
:10583000D26800F0B38401F580618B4200F0AE8441
:10584000A1F568718B4200F0A98401F580618B425B
:1058500000F0A484A1F589618B4200F0D38501F5A5
:1058600080618B4200F0CE85A1F568718B4200F01B
:10587000C98501F580618B4200F0C485A1F589617D
:105880008B4200F07B8601F580618B4200F07686CA
:10589000A1F568718B4200F0718601F580618B4241
:1058A0000CBF4FF480114FF080614D480A43C26035
:1058B000B6E5484A934200F2FF81474A934240F2DC
:1058C00007844649583A8B42D26800F0628401F559
:1058D00080618B4200F05D84A1F568718B4200F01D
:1058E000588401F580618B4200F05384A1F58961F1
:1058F0008B4200F07D8501F580618B4200F0788558
:10590000A1F568718B4200F0738501F580618B42CF
:1059100000F06E85A1F589618B4200F0228601F5C9
:1059200080618B4200F01D86A1F568718B4200F00A
:10593000188601F580618B420CBF4FF480114FF047
:10594000806127480A43C260FFF75FBB224A244DAB
:10595000934240F29A802148EA68834200F0CB8269
:1059600000F58060834200F0C682A0F56870834233
:1059700000F08D8400F58060834200F00485A0F57E
:10598000896083423FF471AE00F5806083423FF44A
:105990006CAEA0F56870834200F0A48500F58060CD
:1059A00083423FF462AEA0F58960834200F098859F
:1059B00000F58060834200F09385A0F56870834213
:1059C00000F0E28500F58060834200F0898504489C
:1059D000FEF791BFB860024058600240106002407C
:1059E00000600240B149583A8B42D26800F04882C8
:1059F00001F580618B4200F04382A1F568718B4212
:105A000000F03E8201F580618B4200F03982A1F501
:105A100089618B4200F0058401F580618B4200F0C2
:105A20000084A1F568718B4200F0FB8301F5806171
:105A30008B4200F0F683A1F589618B4200F032853C
:105A400001F580618B4200F02D85A1F568718B42D4
:105A500000F0288501F580618B420CBF4FF4802156
:105A60004FF0807192480A43C260E16CA26C41F031
:105A70000401E1640420002184F8350084F8341026
:105A8000002A7FF4BEA8FFF7E0BA8848AA688342DC
:105A900000F0178200F58060834200F0B881A0F525
:105AA0006870834200F0B38100F58060834200F0AB
:105AB0005484A0F58960834200F0C68400F58060BC
:105AC000834200F03184A0F56870834200F02C849A
:105AD00000F58060834200F02784A0F5896083424E
