:020000040800F2
:1000000000000220FD000008F9000008F9000008C7
:10001000F9000008F9000008F900000800000000DD
:10002000000000000000000000000000F9000008CF
:10003000F900000800000000F9000008F9000008BD
:100040000B490C4B0A6B42F008020A631A6842F033
:10005000AA421A605A6822F470425A609A6842F0C2
:100060007F429A60DA6822F07F42DA60704700BF10
:1000700000380240000C024082B00190019B5A1EE1
:1000800001922BB100BF019B5A1E0192002BF9D1A6
:1000900002B0704708B5FFF7D3FF15494A69154B01
:1000A00082F480524A6100BF1A46013B002AFAD10D
:1000B0004A69104B82F400524A6100BF1A46013B64
:1000C000002AFAD14A690B4B82F480424A6100BF90
:1000D0001A46013B002AFAD14A69064B82F40042D3
:1000E0004A6100BF1A46013B002AFAD1D6E700BF99
:1000F000000C02403F420F00FEE700BF08B5FFF7CB
:08010000C9FFFEE7704700BFD4
:04000005080000FDF2
:00000001FF
